{
  "contractName": "Counter",
  "abi": [
    {
      "inputs": [],
      "name": "counter",
      "outputs": [
        {
          "internalType": "uint256",
          "name": "",
          "type": "uint256"
        }
      ],
      "stateMutability": "view",
      "type": "function",
      "constant": true
    },
    {
      "inputs": [],
      "name": "increment",
      "outputs": [
        {
          "internalType": "uint256",
          "name": "",
          "type": "uint256"
        }
      ],
      "stateMutability": "nonpayable",
      "type": "function"
    },
    {
      "inputs": [],
      "name": "decrement",
      "outputs": [
        {
          "internalType": "uint256",
          "name": "",
          "type": "uint256"
        }
      ],
      "stateMutability": "nonpayable",
      "type": "function"
    }
  ],
  "bytecode": "0x6080604052601760005534801561001557600080fd5b5060fd806100246000396000f3fe6080604052348015600f57600080fd5b5060043610603c5760003560e01c80632baeceb714604157806361bc221a14605d578063d09de08a146079575b600080fd5b60476095565b6040518082815260200191505060405180910390f35b606360ab565b6040518082815260200191505060405180910390f35b607f60b1565b6040518082815260200191505060405180910390f35b6000600160005403600081905550600054905090565b60005481565b600060016000540160008190555060005490509056fea26469706673582212202f9498038115f4e52e89f8e21459e53ae849c3673a48ff573d133c5d22b9e7f164736f6c63430007000033",
  "immutableReferences": {},
  "source": "pragma solidity ^0.7.0;\n\ncontract Counter {\n    uint256 public counter = 23;\n\n    function increment() public returns (uint256) {\n        counter = counter + 1;\n        return counter;\n    }\n\n    function decrement() public returns (uint256) {\n        counter = counter - 1;\n        return counter;\n    }\n}\n",
  "sourcePath": "/home/juanigallo/repos/dapps/Counter/counter-sc/contracts/Counter.sol",
  "compiler": {
    "name": "solc",
    "version": "0.7.0+commit.9e61f92b.Emscripten.clang"
  },
  "schemaVersion": "3.3.2",
  "updatedAt": "2020-11-20T06:33:07.353Z",
  "networkType": "ethereum",
  "devdoc": {
    "kind": "dev",
    "methods": {},
    "version": 1
  },
  "userdoc": {
    "kind": "user",
    "methods": {},
    "version": 1
  }
}